S0140000526F626F7450726F6A6563742E7372656333
S11300000C94CF000C94EC000C94EC000C94EC00D9
S11300100C94EC000C94EC000C94EC000C94EC00AC
S11300200C94EC000C94EC000C94EC000C94EC009C
S11300300C94EC000C94EC000C94EC000C94EC008C
S11300400C94EC000C94EC000C94EC000C94EC007C
S11300500C94EC000C94EC000C94EC000C94EC006C
S11300600C94EC000C94EC000C94EC000C94EC005C
S11300700C94EC000C94EC000C94EC0016021F029F
S11300802A02370244024F0244024F0237022A0274
S11300909A029F02AE02B302B802BD02A402A902F0
S11300A0C202C70200407A10F35A00A0724E180927
S11300B00010A5D4E80000E87648170000E40B54CB
S11300C0020000CA9A3B000000E1F505000080969A
S11300D09800000040420F000000A08601000000CC
S11300E0102700000000E803000000006400000086
S11300F000000A00000000000100000000002C764F
S1130100D888DC674F0823DFC1DFAE59E1B1B79669
S1130110E5E3E453C63AE651997696E8E6C28426C6
S1130120EB898C9B62ED407C6FFCEFBC9C9F40F2A2
S1130130BAA56FA5F490055A2AF75C936B6CF9671E
S11301406DC11BFCE0E40D47FEF520E6B500D0EDE3
S1130150902E0300943577050080841E080000204B
S11301604E0A000000C80C333333330F986E1283E9
S11301701141EF8D2114893BE65516CFFEE6DB18BD
S1130180D1844B381BF77C1D901DA4BBE424203282
S113019084725E228100C9F124ECA1E53D2711247B
S11301A01FBECFEFD4E0DEBFCDBF11E0A0E0B1E0D1
S11301B0E4E4F6E102C005900D92A839B107D9F73D
S11301C021E0A8E9B1E001C01D92AD39B207E1F721
S11301D00E9432030C94200B0C94000080E4809362
S11301E07C0087E880937A000895ECE7F0E0908142
S11301F08770987F892B8083EAE7F0E080818064B0
S11302008083808186FDFDCF6091780070917900B4
S113021080E090E00E94700720E030E040EA50E483
S11302200E94270820E030EC4FE754E40E94C806FF
S11302300895E0ECF0E0908195FFFDCF8093C60037
S113024008951092C000E1ECF0E080818861808321
S1130250E2ECF0E080818260808381E890E090931A
S1130260C5008093C40008958EEF0E94190181E5B2
S11302700E94190187EA91E60197F1F700C0000096
S113028008950E94190187E893E10197F1F700C0EE
S113029000000895CF93DF93EC018881882331F027
S11302A021960E94410189918111FBCFDF91CF9169
S11302B008958EEF0E94190185E40E94190180E4DB
S11302C00E94190187EA91E60197F1F700C0000046
S11302D008958F929F92AF92BF92CF92DF92EF9246
S11302E0FF920F931F93CF93DF93CDB7DEB767973A
S11302F00FB6F894DEBF0FBECDBF8F829886A98655
S1130300BA86CB86DC86ED86FE860F87188B298B12
S11303103A8B4B8B5C8B6D8B7E8B8F8B0E94590140
S1130320109289001092880010928B0010928A001B
S11303300F2EFAE2AF2EB12CF02DC12CD12C6894E3
S1130340EE24E6F8FE2C6894992491F80E94340176
S113035080E091E00E944A010E94590185B18925FB
S113036085B96C897D898E899F898E010F5F1F4FA6
S113037023E044E00E949A08C8010E944A0180E2F6
S11303800E94410123E044E0C701B6010E949A089B
S1130390C8010E944A012CEB34E743E95DE3C7013D
S11303A0B6010E9456066B017C012FE38DE093E0B9
S11303B0215080409040E1F700C0000021E0A21AE3
S11303C0B10821F60E94340167960FB6F894DEBF97
S11303D00FBECDBFDF91CF911F910F91FF90EF9092
S11303E0DF90CF90BF90AF909F908F9008958F92A1
S11303F09F92AF92BF92CF92DF92EF92FF920F93B0
S11304001F93CF93DF93CDB7DEB761970FB6F89400
S1130410DEBF0FBECDBF882D90E08A30910508F075
S113042048C0FC01E25CFF4F0C94940810928900D0
S11304301092880010928B0010928A003AC08AEFC2
S113044090E0909389008093880090938B00809330
S11304508A002FC08AEF90E09093890080938800EF
S11304608CE390E090938B0080938A0022C08CE30D
S113047090E090938900809388008AEF90E09093B5
S11304808B0080938A0015C08AEF90E090938900D6
S11304908093880010928B0010928A000AC01092F8
S11304A08900109288008AEF90E090938B008093EB
S11304B08A0061960FB6F894DEBF0FBECDBFDF9100
S11304C0CF911F910F91FF90EF90DF90CF90BF904D
S11304D0AF909F908F9008958F929F92AF92BF920A
S11304E0CF92DF92EF92FF920F931F93CF93DF93FC
S11304F0CDB7DEB767970FB6F894DEBF0FBECDBF9A
S11305008F829886A986BA86CB86DC86ED86FE869F
S11305100F87188B298B3A8B4B8B0E943401EF8108
S11305208E2F90E08A309105B8F5FC01E85BFF4F0F
S11305300C9494088EE091E00E944A0131C083E15A
S113054091E00E944A012CC08AE191E00E944A0194
S113055027C088E291E00E944A0122C086E391E02C
S11305600E944A011DC080E491E00E944A0118C023
S11305708BE491E00E944A0113C086E591E00E9459
S11305804A010EC082E691E00E944A0109C080E758
S113059091E00E944A0104C08DE791E00E944A0163
S11305A00E945901688579858A859B858E010F5F34
S11305B01F4F22E043E00E949A08C8010E944A01AA
S11305C080E20E9441016C857D858E859F8522E0B5
S11305D043E00E949A08C8010E944A0180E20E94F6
S11305E04101688979898A899B8922E043E00E94D4
S11305F09A08C8010E944A0167960FB6F894DEBFB4
S11306000FBECDBFDF91CF911F910F91FF90EF905F
S1130610DF90CF90BF90AF909F908F90089581EA24
S11306208093800083E08093810010928B0010926D
S11306308A001092890010928800089583E084B99A
S113064015B88FEF8AB98EEF87B981E088B908951C
S11306500E941E030E9421010E94EE000E940F03CB
S113066078940895CF93DF93CDB7DEB765970FB62F
S1130670F894DEBF0FBECDBF0E9428032FEF88E0A1
S11306809DE3215080409040E1F700C000000E94AB
S1130690340181E891E00E944A011A8A1B8A1C8A6B
S11306A01D8A412C512C3201212C312C411451042E
S11306B06104710409F49EC0A1E04A1A510861085A
S11306C0710886B1811134C041145104610471046C
S11306D079F581E0232809F080E0282E312C0E944E
S11306E0340121143104C9F48DE891E00E944A01D7
S11306F015B8E8E8F0E011821082AAE8B0E011969B
S11307001C921E92412C0F2EF5E35F2EF02D0F2E1E
S1130710FCE06F2EF02D712C0EC00E94FF030F2EF3
S1130720F4EF4F2EF02D55245394612C712C06C0F8
S11307302114310419F4212C312CB8CF65E070E078
S1130740CE0101960E940A0489818A30A1F4882E80
S11307509A80AB80BC80CD80DE80EF80F8840985F0
S11307601A852B853C854D855E856F8578898989B9
S11307700E9469019BCF89809A80AB80BC80CD8028
S1130780DE80EF80F88409851A852B853C854D85AC
S11307905E856F85788989890E94F7018A899B899A
S11307A0AC89BD89843F9140A105B105B9F4898024
S11307B09A80AB80BC80CD80DE80EF80F884098590
S11307C01A852B853C854D855E856F857889898959
S11307D00E946C021A8A1B8A1C8A1D8A8A899B8938
S11307E0AC89BD890196A11DB11D8A8B9B8BAC8BF5
S11307F0BD8B5CCF86B1882309F46BCF99CF10925F
S1130800990110929A0110929B0110929C011092EE
S1130810980108952F923F924F925F926F927F9228
S11308208F929F92AF92BF92CF92DF92EF92FF92FC
S11308301F93CF93DF9300D000D000D0CDB7DEB7A5
S11308409E838D831B0180E00E94F5006B017C0177
S113085081E00E94F50069837A838B839C8382E024
S11308600E94F5002B013C0183E00E94F5004B013E
S11308705C018091990190919A01A0919B01B091A2
S11308809C01181619061A061B0674F58091990125
S113089090919A01A0919B01B0919C010197A109AB
S11308A0B1098093990190939A01A0939B01B0930D
S11308B09C0180919801AD81BE818C93FD01C18220
S11308C0D282E382F48289819A81AB81BC8185835F
S11308D09683A783B087418652866386748685860D
S11308E09686A786B08AC8C123E333E343E95FE36E
S11308F0C501B4010E94C306882354F410929901DF
S113090010929A0110929B0110929C011AE09AC1D4
S113091023E333E343EB5FE3C701B6010E942208FC
S113092018160CF03FC02CEC3CEC4CEC5FE36981F6
S11309307A818B819C810E94220818169CF523E3FE
S113094033E343EB5FE3C301B2010E9422081816AC
S11309504CF5A3019201C701B6010E9422081816A2
S113096014F016E001C017E0B10180E090E00E94AD
S1130970700720E030E04AE754E40E94C8069B0177
S1130980AC0160E070E080EE90E40E94C8060E9432
S11309903A076093990170939A0180939B01909315
S11309A09C0150C126E636E646EE5FE3C701B60178
S11309B00E94220818165CF52DEC3CEC4CEA5FE32F
S11309C069817A818B819C810E9422081816FCF42B
S11309D0B10180E090E00E94700720E030E04AE737
S11309E054E40E94C8069B01AC016DEC7CEC8CECD9
S11309F09CE30E94C8060E943A0760939901709391
S1130A009A0180939B0190939C0115E01BC126E6FB
S1130A1036E646EE5FE3C301B2010E9422081816CF
S1130A205CF52DEC3CEC4CEA5FE369817A818B81C7
S1130A309C810E9422081816FCF4B10180E090E029
S1130A400E94700720E030E04AE754E40E94C806A0
S1130A509B01AC016DEC7CEC8CEC9CE30E94C80621
S1130A600E943A076093990170939A0180939B01C5
S1130A7090939C0114E0E6C02AE939E949E95FE36F
S1130A80C701B6010E94220818164CF526E636E680
S1130A9046E65FE3C301B2010E94C3061816FCF0E8
S1130AA0B10180E090E00E94700720E030E04AE766
S1130AB054E40E94C8069B01AC016DEC7CEC8CEC08
S1130AC09DE30E94C8060E943A07609399017093BF
S1130AD09A0180939B0190939C0113E0B3C026E696
S1130AE036E646E65FE3C701B6010E94C306181660
S1130AF04CF12AE939E949E95FE3C301B2010E94F3
S1130B0022081816FCF4B10180E090E00E947007FE
S1130B1020E030E04AE754E40E94C8069B01AC019F
S1130B206DEC7CEC8CEC9DE30E94C8060E943A07B5
S1130B306093990170939A0180939B0190939C0117
S1130B4012E080C02DEC3CEC4CEA5FE3C701B60137
S1130B500E94C30618160CF43FC026E636E646EE9D
S1130B605FE369817A818B819C810E942208181637
S1130B709CF52DEC3CEC4CEA5FE3C301B2010E940E
S1130B80C30618164CF1A3019201C701B6010E94D5
S1130B902208181614F019E001C018E0B10180E031
S1130BA090E00E94700720E030E04AE754E40E949D
S1130BB0C8069B01AC016DEC7CEC8CEC9DE30E94BF
S1130BC0C8060E943A076093990170939A01809332
S1130BD09B0190939C0136C02AE939E949E95FE316
S1130BE069817A818B819C810E94220818164CF5B8
S1130BF0A3019201C701B6010E942208181614F03D
S1130C0012E001C013E0B10180E090E00E9470079F
S1130C1020E030E04AE754E40E94C8069B01AC019E
S1130C206DEC7CEC8CEC9DE30E94C8060E943A07B4
S1130C306093990170939A0180939B0190939C0116
S1130C4001C011E010939801AD81BE811C93FD0198
S1130C50C182D282E382F48289819A81AB81BC8190
S1130C6085839683A783B08741865286638674867C
S1130C7085869686A786B08A8D819E8126960FB634
S1130C80F894DEBF0FBECDBFDF91CF911F91FF90CF
S1130C90EF90DF90CF90BF90AF909F908F907F9018
S1130CA06F905F904F903F902F9008955058BB27BE
S1130CB0AA270E946E060C94E8070E94DA0738F00F
S1130CC00E94E10720F039F49F3F19F426F40C94B4
S1130CD0D7070EF4E095E7FB0C94D107E92F0E94A7
S1130CE0F90758F3BA17620773078407950720F0CA
S1130CF079F4A6F50C941B080EF4E0950B2EBA2F8C
S1130D00A02D0B01B90190010C01CA01A00111240D
S1130D10FF27591B99F0593F50F4503E68F11A16B9
S1130D20F040A22F232F342F4427585FF3CF46954A
S1130D3037952795A795F0405395C9F77EF41F166C
S1130D40BA0B620B730B840BBAF09150A1F0FF0F36
S1130D50BB1F661F771F881FC2F70EC0BA0F621F22
S1130D60731F841F48F4879577956795B795F79512
S1130D709E3F08F0B0CF9395880F08F09927EE0FA7
S1130D809795879508950E94AD0708F481E008952A
S1130D900E94DC060C94E8070E94E10758F00E94C8
S1130DA0DA0740F029F45F3F29F00C94D107511180
S1130DB00C941C080C94D7070E94F90768F3992334
S1130DC0B1F3552391F3951B550BBB27AA27621743
S1130DD07307840738F09F5F5F4F220F331F441F50
S1130DE0AA1FA9F335D00E2E3AF0E0E832D0915084
S1130DF05040E695001CCAF72BD0FE2F29D0660F71
S1130E00771F881FBB1F261737074807AB07B0E8B3
S1130E1009F0BB0B802DBF01FF2793585F4F3AF0B9
S1130E209E3F510578F00C94D1070C941C085F3F49
S1130E30E4F3983ED4F3869577956795B795F7953F
S1130E409F5FC9F7880F911D9695879597F9089527
S1130E50E1E0660F771F881FBB1F621773078407C3
S1130E60BA0720F0621B730B840BBA0BEE1F88F7D2
S1130E70E09508950E9441076894B1110C941C08F0
S1130E8008950E94010888F09F5798F0B92F992778
S1130E90B751B0F0E1F0660F771F881F991F1AF061
S1130EA0BA95C9F714C0B13091F00E941B08B1E0A3
S1130EB008950C941B08672F782F8827B85F39F0A2
S1130EC0B93FCCF3869577956795B395D9F73EF4FA
S1130ED090958095709561957F4F8F4F9F4F0895A2
S1130EE0E89409C097FB3EF49095809570956195C0
S1130EF07F4F8F4F9F4F9923A9F0F92F96E9BB2776
S1130F009395F695879577956795B795F111F8CFF1
S1130F10FAF4BB0F11F460FF1BC06F5F7F4F8F4F5C
S1130F209F4F16C0882311F096E911C0772321F052
S1130F309EE8872F762F05C0662371F096E8862FEA
S1130F4070E060E02AF09A95660F771F881FDAF741
S1130F50880F9695879597F90895990F0008550F6E
S1130F60AA0BE0E8FEEF16161706E807F907C0F02B
S1130F7012161306E407F50798F0621B730B840B33
S1130F80950B39F40A2661F0232B242B252B21F40D
S1130F9008950A2609F4A140A6958FEF811D811DAD
S1130FA0089597F99F6780E870E060E008959FEFE7
S1130FB080EC089500240A941616170618060906EC
S1130FC0089500240A9412161306140605060895BB
S1130FD0092E0394000C11F4882352F0BB0F40F443
S1130FE0BF2B11F460FF04C06F5F7F4F8F4F9F4F83
S1130FF0089557FD9058440F551F59F05F3F71F005
S11310004795880F97FB991F61F09F3F79F087956B
S11310100895121613061406551FF2CF4695F1DFF4
S113102008C0161617061806991FF1CF8695710584
S1131030610508940895E894BB2766277727CB01B8
S113104097F908950E94AD0708F48FEF08950E9460
S11310503A080C94E8070E94DA0738F00E94E10786
S113106020F0952311F00C94D1070C94D707112488
S11310700C941C080E94F90770F3959FC1F3950F17
S113108050E0551F629FF001729FBB27F00DB11D08
S1131090639FAA27F00DB11DAA1F649F6627B00D98
S11310A0A11D661F829F2227B00DA11D621F739F81
S11310B0B00DA11D621F839FA00D611D221F749F8F
S11310C03327A00D611D231F849F600D211D822FD6
S11310D0762F6A2F11249F5750409AF0F1F08823FD
S11310E04AF0EE0FFF1FBB1F661F771F881F91502A
S11310F05040A9F79E3F510580F00C94D1070C9401
S11311001C085F3FE4F3983ED4F386957795679582
S1131110B795F795E7959F5FC1F7FE2B880F911D53
S11311209695879597F90895EE0FFF1F0590F49112
S1131130E02D0994EF920F931F93CF93DF93E8016F
S113114047FD02C034E001C034E1E42F440FFF0B3B
S1131150F7FF03C0F195E195F109E32E022F2E2F3D
S1131160AE010E94BA08CE01DF91CF911F910F9179
S1131170EF9008954F925F926F927F929F92AF92F9
S1131180BF92CF92DF92EF92FF920F931F93CF9370
S1131190DF93CDB7DEB729970FB6F894DEBF0FBE45
S11311A0CDBF6A01122FB02E2BE3201720F0FF24AD
S11311B0F394F00E02C0BCE3FB2E0F2D27E0AE012A
S11311C04F5F5F4F0E94480AAC018981982F997044
S11311D0913031F0E1FC06C0E0FE06C090E205C0AB
S11311E09DE203C09BE201C090E0EE2DE07183FF1D
S11311F03CC0911102C083E001C084E0811718F45F
S1131200212F281B01C020E0E1110BC0F601822F21
S113121030E2882319F031938150FBCFC20ED11CE8
S113122020E0992329F0D6019C93F60131966F01B1
S1131230C6010396E2FE0AC03EE4D6013C9341E4B3
S113124011964C93119712963C9306C03EE6F60114
S1131250308341E641833283FC01322F40E2332361
S113126009F442C041933150FACF82FF44C0911136
S113127002C083E001C084E0811718F4212F281BE9
S113128001C020E0E1110BC0F601822F30E2882377
S113129019F031938150FBCFC20ED11C20E0992369
S11312A029F0D6019C93F60131966F01C60103968D
S11312B0E2FE0BC039E4D6013C933EE411963C9324
S11312C0119736E412963C9307C039E6F601308351
S11312D03EE6318336E63283FC01322F40E233238B
S11312E019F041933150FBCFFC01E20FF11D108244
S11312F08EEF9FEFB7C0F1E0911101C0F0E06F2FC6
S113130070E01416150624F49A012F5F3F4F02C0B3
S113131021E030E0260F371FBB2029F06B2D70E051
S11313206F5F7F4F02C060E070E0260F371F612FB0
S113133070E0261737071CF4121B212F01C020E090
S11313403E2D387159F4D601322F60E2332319F05F
S11313506D933150FBCFC20ED11C20E0FF2331F03E
S1131360D6019C93B6016F5F7F4F6B01E1110BC0F7
S1131370F601922F30E3992319F031939150FBCF6A
S1131380C20ED11C20E09F2D940F3A81782F7071EA
S1131390A72E84FF03C0313309F49150191624F4A5
S11313A0993018F098E001C091E0E42F852F57FFA1
S11313B002C0E0E080E06E2F782FE0E0F0E0AEE2E3
S11313C09A2E3A01691A71082A01461A570A0B2DF6
S11313D010E01195019511096F3F8FEF780729F4FB
S11313E0D6019C92C60101966C014617570784F0FA
S11313F0661677066CF47F01E40CF51CA1E0B0E0FE
S1131400AC0FBD1FEA0EFB1ED7011196BC9002C0A3
S113141090E3B92E615071093196C60101967C01A1
S11314206017710724F0D601BC926C01D5CF641704
S1131430750741F4363320F4353321F4A11002C08A
S113144081E3B82EF601B082F701822F90E288235F
S113145019F091938150FBCFF701E20FF11D108237
S113146080E090E029960FB6F894DEBF0FBECDBFA2
S1131470DF91CF911F910F91FF90EF90DF90CF906C
S1131480BF90AF909F907F906F905F904F90089522
S1131490283008F027E03327DA01990F311D87FD42
S11314A0916000966105710539F432602E5F3D93B9
S11314B030E32A95E1F708959F3F30F080387105B5
S11314C0610509F03C5F3C5F3D93913008F0806812
S11314D0911DDF93CF931F930F93FF92EF92192FD8
S11314E0987F9695E92F96959695E90FFF27E250F8
S11314F0FF4F99273327EE24FF24A701E701059026
S11315000894079428F4360FE71EF81E491F511D4E
S1131510660F771F881F991F0694A1F705900794FB
S113152028F4E70EF81E491F561FC11D770F881FA8
S1131530991F661F0694A1F70590079428F4F80EE6
S1131540491F561FC71FD11D880F991F661F771F7C
S11315500694A1F70590079420F4490F561FC71F5E
S1131560D81F990F661F771F881F0694A9F78491C7
S11315701095177041F0D695C79557954795F794F0
S1131580E7941A95C1F7E4EAF0E068941590159190
S113159035916591959105907FE27395E118F10A73
S11315A0430B560BC90BD009C0F7E10CF11E431FC6
S11315B0561FC91FD01D7EF4703311F48A95E6CFEF
S11315C0E894015030F0080F0AF40027021708F4D9
S11315D0202F2395022F7A3328F079E37D932A95DF
S11315E0E9F710C07D932A9589F606949795679537
S11315F0379517951794E118F10A430B560BC90B4D
S1131600D00998F023957E9173957A3308F070E3AE
S11316107C932013B8F77E9170617D9330F08395AD
S113162071E37D9370E32A95E1F71124EF90FF9025
S11316300F911F91CF91DF91992787FD9095089580
S1071640F894FFCF48
S11316444445465553494E47204D494E45004E4F57
S11316544E4500435255495345005455524E5F413B
S1131664524F554E445F4C005455524E5F41524FB5
S1131674554E445F52005455524E5F4C45465400F7
S11316845455524E5F5249474854005348415250AE
S11316945F4C4546540053484152505F52494748B1
S11316A4540044454641554C545F524947485400FC
S11316B444454641554C545F4C45465400455252AA
S11316C400526F626F7420726561647900526F62B4
S10B16D46F742049646C650089
S9030000FC
